{
  "_format": "hh-sol-artifact-1",
  "contractName": "CryptoDevToken",
  "sourceName": "contracts/CryptoDevToken.sol",
  "abi": [
    {
      "inputs": [
        {
          "internalType": "address",
          "name": "_cryptoDevsNFT",
          "type": "address"
        }
      ],
      "stateMutability": "nonpayable",
      "type": "constructor"
    },
    {
      "anonymous": false,
      "inputs": [
        {
          "indexed": true,
          "internalType": "address",
          "name": "owner",
          "type": "address"
        },
        {
          "indexed": true,
          "internalType": "address",
          "name": "spender",
          "type": "address"
        },
        {
          "indexed": false,
          "internalType": "uint256",
          "name": "value",
          "type": "uint256"
        }
      ],
      "name": "Approval",
      "type": "event"
    },
    {
      "anonymous": false,
      "inputs": [
        {
          "indexed": true,
          "internalType": "address",
          "name": "previousOwner",
          "type": "address"
        },
        {
          "indexed": true,
          "internalType": "address",
          "name": "newOwner",
          "type": "address"
        }
      ],
      "name": "OwnershipTransferred",
      "type": "event"
    },
    {
      "anonymous": false,
      "inputs": [
        {
          "indexed": true,
          "internalType": "address",
          "name": "from",
          "type": "address"
        },
        {
          "indexed": true,
          "internalType": "address",
          "name": "to",
          "type": "address"
        },
        {
          "indexed": false,
          "internalType": "uint256",
          "name": "value",
          "type": "uint256"
        }
      ],
      "name": "Transfer",
      "type": "event"
    },
    {
      "stateMutability": "payable",
      "type": "fallback"
    },
    {
      "inputs": [
        {
          "internalType": "address",
          "name": "owner",
          "type": "address"
        },
        {
          "internalType": "address",
          "name": "spender",
          "type": "address"
        }
      ],
      "name": "allowance",
      "outputs": [
        {
          "internalType": "uint256",
          "name": "",
          "type": "uint256"
        }
      ],
      "stateMutability": "view",
      "type": "function"
    },
    {
      "inputs": [
        {
          "internalType": "address",
          "name": "spender",
          "type": "address"
        },
        {
          "internalType": "uint256",
          "name": "amount",
          "type": "uint256"
        }
      ],
      "name": "approve",
      "outputs": [
        {
          "internalType": "bool",
          "name": "",
          "type": "bool"
        }
      ],
      "stateMutability": "nonpayable",
      "type": "function"
    },
    {
      "inputs": [
        {
          "internalType": "address",
          "name": "account",
          "type": "address"
        }
      ],
      "name": "balanceOf",
      "outputs": [
        {
          "internalType": "uint256",
          "name": "",
          "type": "uint256"
        }
      ],
      "stateMutability": "view",
      "type": "function"
    },
    {
      "inputs": [],
      "name": "claim",
      "outputs": [],
      "stateMutability": "nonpayable",
      "type": "function"
    },
    {
      "inputs": [],
      "name": "decimals",
      "outputs": [
        {
          "internalType": "uint8",
          "name": "",
          "type": "uint8"
        }
      ],
      "stateMutability": "view",
      "type": "function"
    },
    {
      "inputs": [
        {
          "internalType": "address",
          "name": "spender",
          "type": "address"
        },
        {
          "internalType": "uint256",
          "name": "subtractedValue",
          "type": "uint256"
        }
      ],
      "name": "decreaseAllowance",
      "outputs": [
        {
          "internalType": "bool",
          "name": "",
          "type": "bool"
        }
      ],
      "stateMutability": "nonpayable",
      "type": "function"
    },
    {
      "inputs": [
        {
          "internalType": "address",
          "name": "spender",
          "type": "address"
        },
        {
          "internalType": "uint256",
          "name": "addedValue",
          "type": "uint256"
        }
      ],
      "name": "increaseAllowance",
      "outputs": [
        {
          "internalType": "bool",
          "name": "",
          "type": "bool"
        }
      ],
      "stateMutability": "nonpayable",
      "type": "function"
    },
    {
      "inputs": [],
      "name": "maxTotalSupply",
      "outputs": [
        {
          "internalType": "uint256",
          "name": "",
          "type": "uint256"
        }
      ],
      "stateMutability": "view",
      "type": "function"
    },
    {
      "inputs": [
        {
          "internalType": "uint256",
          "name": "amount",
          "type": "uint256"
        }
      ],
      "name": "mint",
      "outputs": [],
      "stateMutability": "payable",
      "type": "function"
    },
    {
      "inputs": [],
      "name": "name",
      "outputs": [
        {
          "internalType": "string",
          "name": "",
          "type": "string"
        }
      ],
      "stateMutability": "view",
      "type": "function"
    },
    {
      "inputs": [],
      "name": "owner",
      "outputs": [
        {
          "internalType": "address",
          "name": "",
          "type": "address"
        }
      ],
      "stateMutability": "view",
      "type": "function"
    },
    {
      "inputs": [],
      "name": "renounceOwnership",
      "outputs": [],
      "stateMutability": "nonpayable",
      "type": "function"
    },
    {
      "inputs": [],
      "name": "symbol",
      "outputs": [
        {
          "internalType": "string",
          "name": "",
          "type": "string"
        }
      ],
      "stateMutability": "view",
      "type": "function"
    },
    {
      "inputs": [
        {
          "internalType": "uint256",
          "name": "",
          "type": "uint256"
        }
      ],
      "name": "tokenIdsClaimed",
      "outputs": [
        {
          "internalType": "bool",
          "name": "",
          "type": "bool"
        }
      ],
      "stateMutability": "view",
      "type": "function"
    },
    {
      "inputs": [],
      "name": "tokenPerNFT",
      "outputs": [
        {
          "internalType": "uint256",
          "name": "",
          "type": "uint256"
        }
      ],
      "stateMutability": "view",
      "type": "function"
    },
    {
      "inputs": [],
      "name": "tokenPrice",
      "outputs": [
        {
          "internalType": "uint256",
          "name": "",
          "type": "uint256"
        }
      ],
      "stateMutability": "view",
      "type": "function"
    },
    {
      "inputs": [],
      "name": "totalSupply",
      "outputs": [
        {
          "internalType": "uint256",
          "name": "",
          "type": "uint256"
        }
      ],
      "stateMutability": "view",
      "type": "function"
    },
    {
      "inputs": [
        {
          "internalType": "address",
          "name": "to",
          "type": "address"
        },
        {
          "internalType": "uint256",
          "name": "amount",
          "type": "uint256"
        }
      ],
      "name": "transfer",
      "outputs": [
        {
          "internalType": "bool",
          "name": "",
          "type": "bool"
        }
      ],
      "stateMutability": "nonpayable",
      "type": "function"
    },
    {
      "inputs": [
        {
          "internalType": "address",
          "name": "from",
          "type": "address"
        },
        {
          "internalType": "address",
          "name": "to",
          "type": "address"
        },
        {
          "internalType": "uint256",
          "name": "amount",
          "type": "uint256"
        }
      ],
      "name": "transferFrom",
      "outputs": [
        {
          "internalType": "bool",
          "name": "",
          "type": "bool"
        }
      ],
      "stateMutability": "nonpayable",
      "type": "function"
    },
    {
      "inputs": [
        {
          "internalType": "address",
          "name": "newOwner",
          "type": "address"
        }
      ],
      "name": "transferOwnership",
      "outputs": [],
      "stateMutability": "nonpayable",
      "type": "function"
    },
    {
      "stateMutability": "payable",
      "type": "receive"
    }
  ],
  "bytecode": "0x60806040523480156200001157600080fd5b50604051620025ab380380620025ab8339818101604052810190620000379190620002d4565b6040518060400160405280601081526020017f43727970746f2044657620546f6b656e000000000000000000000000000000008152506040518060400160405280600281526020017f43440000000000000000000000000000000000000000000000000000000000008152508160039080519060200190620000bb9291906200020d565b508060049080519060200190620000d49291906200020d565b505050620000f7620000eb6200013f60201b60201c565b6200014760201b60201c565b80600660006101000a81548173ffffffffffffffffffffffffffffffffffffffff021916908373ffffffffffffffffffffffffffffffffffffffff16021790555050620003b3565b600033905090565b6000600560009054906101000a900473ffffffffffffffffffffffffffffffffffffffff16905081600560006101000a81548173ffffffffffffffffffffffffffffffffffffffff021916908373ffffffffffffffffffffffffffffffffffffffff1602179055508173ffffffffffffffffffffffffffffffffffffffff168173ffffffffffffffffffffffffffffffffffffffff167f8be0079c531659141344cd1fd0a4f28419497f9722a3daafe3b4186f6b6457e060405160405180910390a35050565b8280546200021b9062000334565b90600052602060002090601f0160209004810192826200023f57600085556200028b565b82601f106200025a57805160ff19168380011785556200028b565b828001600101855582156200028b579182015b828111156200028a5782518255916020019190600101906200026d565b5b5090506200029a91906200029e565b5090565b5b80821115620002b95760008160009055506001016200029f565b5090565b600081519050620002ce8162000399565b92915050565b600060208284031215620002e757600080fd5b6000620002f784828501620002bd565b91505092915050565b60006200030d8262000314565b9050919050565b600073ffffffffffffffffffffffffffffffffffffffff82169050919050565b600060028204905060018216806200034d57607f821691505b602082108114156200036457620003636200036a565b5b50919050565b7f4e487b7100000000000000000000000000000000000000000000000000000000600052602260045260246000fd5b620003a48162000300565b8114620003b057600080fd5b50565b6121e880620003c36000396000f3fe6080604052600436106101235760003560e01c8063715018a6116100a0578063a0712d6811610064578063a0712d68146103e3578063a457c2d7146103ff578063a9059cbb1461043c578063dd62ed3e14610479578063f2fde38b146104b65761012a565b8063715018a6146103205780637ff9b596146103375780638da5cb5b1461036257806395b296a21461038d57806395d89b41146103b85761012a565b8063313ce567116100e7578063313ce5671461022757806339509351146102525780634e71d92d1461028f5780635f3690af146102a657806370a08231146102e35761012a565b806306fdde031461012c578063095ea7b31461015757806318160ddd1461019457806323b872dd146101bf5780632ab4d052146101fc5761012a565b3661012a57005b005b34801561013857600080fd5b506101416104df565b60405161014e919061199a565b60405180910390f35b34801561016357600080fd5b5061017e6004803603810190610179919061164e565b610571565b60405161018b919061197f565b60405180910390f35b3480156101a057600080fd5b506101a9610594565b6040516101b69190611b7c565b60405180910390f35b3480156101cb57600080fd5b506101e660048036038101906101e191906115ff565b61059e565b6040516101f3919061197f565b60405180910390f35b34801561020857600080fd5b506102116105cd565b60405161021e9190611b7c565b60405180910390f35b34801561023357600080fd5b5061023c6105db565b6040516102499190611b97565b60405180910390f35b34801561025e57600080fd5b506102796004803603810190610274919061164e565b6105e4565b604051610286919061197f565b60405180910390f35b34801561029b57600080fd5b506102a461068e565b005b3480156102b257600080fd5b506102cd60048036038101906102c8919061168a565b61091c565b6040516102da919061197f565b60405180910390f35b3480156102ef57600080fd5b5061030a6004803603810190610305919061159a565b61093c565b6040516103179190611b7c565b60405180910390f35b34801561032c57600080fd5b50610335610984565b005b34801561034357600080fd5b5061034c610a0c565b6040516103599190611b7c565b60405180910390f35b34801561036e57600080fd5b50610377610a17565b604051610384919061193b565b60405180910390f35b34801561039957600080fd5b506103a2610a41565b6040516103af9190611b7c565b60405180910390f35b3480156103c457600080fd5b506103cd610a4d565b6040516103da919061199a565b60405180910390f35b6103fd60048036038101906103f8919061168a565b610adf565b005b34801561040b57600080fd5b506104266004803603810190610421919061164e565b610bbf565b604051610433919061197f565b60405180910390f35b34801561044857600080fd5b50610463600480360381019061045e919061164e565b610ca9565b604051610470919061197f565b60405180910390f35b34801561048557600080fd5b506104a0600480360381019061049b91906115c3565b610ccc565b6040516104ad9190611b7c565b60405180910390f35b3480156104c257600080fd5b506104dd60048036038101906104d8919061159a565b610d53565b005b6060600380546104ee90611d06565b80601f016020809104026020016040519081016040528092919081815260200182805461051a90611d06565b80156105675780601f1061053c57610100808354040283529160200191610567565b820191906000526020600020905b81548152906001019060200180831161054a57829003601f168201915b5050505050905090565b60008061057c610e4b565b9050610589818585610e53565b600191505092915050565b6000600254905090565b6000806105a9610e4b565b90506105b685828561101e565b6105c18585856110aa565b60019150509392505050565b69021e19e0c9bab240000081565b60006012905090565b6000806105ef610e4b565b9050610683818585600160008673ffffffffffffffffffffffffffffffffffffffff1673ffffffffffffffffffffffffffffffffffffffff16815260200190815260200160002060008973ffffffffffffffffffffffffffffffffffffffff1673ffffffffffffffffffffffffffffffffffffffff1681526020019081526020016000205461067e9190611bce565b610e53565b600191505092915050565b60003390506000600660009054906101000a900473ffffffffffffffffffffffffffffffffffffffff1673ffffffffffffffffffffffffffffffffffffffff166370a08231836040518263ffffffff1660e01b81526004016106f0919061193b565b60206040518083038186803b15801561070857600080fd5b505afa15801561071c573d6000803e3d6000fd5b505050506040513d601f19601f8201168201806040525081019061074091906116b3565b905060008111610785576040517f08c379a000000000000000000000000000000000000000000000000000000000815260040161077c90611a1c565b60405180910390fd5b6000805b828110156108b6576000600660009054906101000a900473ffffffffffffffffffffffffffffffffffffffff1673ffffffffffffffffffffffffffffffffffffffff1663320dac7886846040518363ffffffff1660e01b81526004016107f0929190611956565b60206040518083038186803b15801561080857600080fd5b505afa15801561081c573d6000803e3d6000fd5b505050506040513d601f19601f8201168201806040525081019061084091906116b3565b90506007600082815260200190815260200160002060009054906101000a900460ff166108a257828061087290611d38565b93505060016007600083815260200190815260200160002060006101000a81548160ff0219169083151502179055505b5080806108ae90611d38565b915050610789565b50600081116108fa576040517f08c379a00000000000000000000000000000000000000000000000000000000081526004016108f190611a5c565b60405180910390fd5b61091783678ac7230489e80000836109129190611c24565b61132b565b505050565b60076020528060005260406000206000915054906101000a900460ff1681565b60008060008373ffffffffffffffffffffffffffffffffffffffff1673ffffffffffffffffffffffffffffffffffffffff168152602001908152602001600020549050919050565b61098c610e4b565b73ffffffffffffffffffffffffffffffffffffffff166109aa610a17565b73ffffffffffffffffffffffffffffffffffffffff1614610a00576040517f08c379a00000000000000000000000000000000000000000000000000000000081526004016109f790611abc565b60405180910390fd5b610a0a600061148b565b565b66038d7ea4c6800081565b6000600560009054906101000a900473ffffffffffffffffffffffffffffffffffffffff16905090565b678ac7230489e8000081565b606060048054610a5c90611d06565b80601f0160208091040260200160405190810160405280929190818152602001828054610a8890611d06565b8015610ad55780601f10610aaa57610100808354040283529160200191610ad5565b820191906000526020600020905b815481529060010190602001808311610ab857829003601f168201915b5050505050905090565b60008166038d7ea4c68000610af49190611c24565b905080341015610b39576040517f08c379a0000000000000000000000000000000000000000000000000000000008152600401610b3090611adc565b60405180910390fd5b6000670de0b6b3a764000083610b4f9190611c24565b905069021e19e0c9bab240000081610b65610594565b610b6f9190611bce565b1115610bb0576040517f08c379a0000000000000000000000000000000000000000000000000000000008152600401610ba790611a9c565b60405180910390fd5b610bba338261132b565b505050565b600080610bca610e4b565b90506000600160008373ffffffffffffffffffffffffffffffffffffffff1673ffffffffffffffffffffffffffffffffffffffff16815260200190815260200160002060008673ffffffffffffffffffffffffffffffffffffffff1673ffffffffffffffffffffffffffffffffffffffff16815260200190815260200160002054905083811015610c90576040517f08c379a0000000000000000000000000000000000000000000000000000000008152600401610c8790611b3c565b60405180910390fd5b610c9d8286868403610e53565b60019250505092915050565b600080610cb4610e4b565b9050610cc18185856110aa565b600191505092915050565b6000600160008473ffffffffffffffffffffffffffffffffffffffff1673ffffffffffffffffffffffffffffffffffffffff16815260200190815260200160002060008373ffffffffffffffffffffffffffffffffffffffff1673ffffffffffffffffffffffffffffffffffffffff16815260200190815260200160002054905092915050565b610d5b610e4b565b73ffffffffffffffffffffffffffffffffffffffff16610d79610a17565b73ffffffffffffffffffffffffffffffffffffffff1614610dcf576040517f08c379a0000000000000000000000000000000000000000000000000000000008152600401610dc690611abc565b60405180910390fd5b600073ffffffffffffffffffffffffffffffffffffffff168173ffffffffffffffffffffffffffffffffffffffff161415610e3f576040517f08c379a0000000000000000000000000000000000000000000000000000000008152600401610e36906119dc565b60405180910390fd5b610e488161148b565b50565b600033905090565b600073ffffffffffffffffffffffffffffffffffffffff168373ffffffffffffffffffffffffffffffffffffffff161415610ec3576040517f08c379a0000000000000000000000000000000000000000000000000000000008152600401610eba90611b1c565b60405180910390fd5b600073ffffffffffffffffffffffffffffffffffffffff168273ffffffffffffffffffffffffffffffffffffffff161415610f33576040517f08c379a0000000000000000000000000000000000000000000000000000000008152600401610f2a906119fc565b60405180910390fd5b80600160008573ffffffffffffffffffffffffffffffffffffffff1673ffffffffffffffffffffffffffffffffffffffff16815260200190815260200160002060008473ffffffffffffffffffffffffffffffffffffffff1673ffffffffffffffffffffffffffffffffffffffff168152602001908152602001600020819055508173ffffffffffffffffffffffffffffffffffffffff168373ffffffffffffffffffffffffffffffffffffffff167f8c5be1e5ebec7d5bd14f71427d1e84f3dd0314c0f7b2291e5b200ac8c7c3b925836040516110119190611b7c565b60405180910390a3505050565b600061102a8484610ccc565b90507fffffffffffffffffffffffffffffffffffffffffffffffffffffffffffffffff81146110a45781811015611096576040517f08c379a000000000000000000000000000000000000000000000000000000000815260040161108d90611a3c565b60405180910390fd5b6110a38484848403610e53565b5b50505050565b600073ffffffffffffffffffffffffffffffffffffffff168373ffffffffffffffffffffffffffffffffffffffff16141561111a576040517f08c379a000000000000000000000000000000000000000000000000000000000815260040161111190611afc565b60405180910390fd5b600073ffffffffffffffffffffffffffffffffffffffff168273ffffffffffffffffffffffffffffffffffffffff16141561118a576040517f08c379a0000000000000000000000000000000000000000000000000000000008152600401611181906119bc565b60405180910390fd5b611195838383611551565b60008060008573ffffffffffffffffffffffffffffffffffffffff1673ffffffffffffffffffffffffffffffffffffffff1681526020019081526020016000205490508181101561121b576040517f08c379a000000000000000000000000000000000000000000000000000000000815260040161121290611a7c565b60405180910390fd5b8181036000808673ffffffffffffffffffffffffffffffffffffffff1673ffffffffffffffffffffffffffffffffffffffff16815260200190815260200160002081905550816000808573ffffffffffffffffffffffffffffffffffffffff1673ffffffffffffffffffffffffffffffffffffffff16815260200190815260200160002060008282546112ae9190611bce565b925050819055508273ffffffffffffffffffffffffffffffffffffffff168473ffffffffffffffffffffffffffffffffffffffff167fddf252ad1be2c89b69c2b068fc378daa952ba7f163c4a11628f55a4df523b3ef846040516113129190611b7c565b60405180910390a3611325848484611556565b50505050565b600073ffffffffffffffffffffffffffffffffffffffff168273ffffffffffffffffffffffffffffffffffffffff16141561139b576040517f08c379a000000000000000000000000000000000000000000000000000000000815260040161139290611b5c565b60405180910390fd5b6113a760008383611551565b80600260008282546113b99190611bce565b92505081905550806000808473ffffffffffffffffffffffffffffffffffffffff1673ffffffffffffffffffffffffffffffffffffffff168152602001908152602001600020600082825461140e9190611bce565b925050819055508173ffffffffffffffffffffffffffffffffffffffff16600073ffffffffffffffffffffffffffffffffffffffff167fddf252ad1be2c89b69c2b068fc378daa952ba7f163c4a11628f55a4df523b3ef836040516114739190611b7c565b60405180910390a361148760008383611556565b5050565b6000600560009054906101000a900473ffffffffffffffffffffffffffffffffffffffff16905081600560006101000a81548173ffffffffffffffffffffffffffffffffffffffff021916908373ffffffffffffffffffffffffffffffffffffffff1602179055508173ffffffffffffffffffffffffffffffffffffffff168173ffffffffffffffffffffffffffffffffffffffff167f8be0079c531659141344cd1fd0a4f28419497f9722a3daafe3b4186f6b6457e060405160405180910390a35050565b505050565b505050565b60008135905061156a81612184565b92915050565b60008135905061157f8161219b565b92915050565b6000815190506115948161219b565b92915050565b6000602082840312156115ac57600080fd5b60006115ba8482850161155b565b91505092915050565b600080604083850312156115d657600080fd5b60006115e48582860161155b565b92505060206115f58582860161155b565b9150509250929050565b60008060006060848603121561161457600080fd5b60006116228682870161155b565b93505060206116338682870161155b565b925050604061164486828701611570565b9150509250925092565b6000806040838503121561166157600080fd5b600061166f8582860161155b565b925050602061168085828601611570565b9150509250929050565b60006020828403121561169c57600080fd5b60006116aa84828501611570565b91505092915050565b6000602082840312156116c557600080fd5b60006116d384828501611585565b91505092915050565b6116e581611c7e565b82525050565b6116f481611c90565b82525050565b600061170582611bb2565b61170f8185611bbd565b935061171f818560208601611cd3565b61172881611ddf565b840191505092915050565b6000611740602383611bbd565b915061174b82611df0565b604082019050919050565b6000611763602683611bbd565b915061176e82611e3f565b604082019050919050565b6000611786602283611bbd565b915061179182611e8e565b604082019050919050565b60006117a9602183611bbd565b91506117b482611edd565b604082019050919050565b60006117cc601d83611bbd565b91506117d782611f2c565b602082019050919050565b60006117ef602783611bbd565b91506117fa82611f55565b604082019050919050565b6000611812602683611bbd565b915061181d82611fa4565b604082019050919050565b6000611835601c83611bbd565b915061184082611ff3565b602082019050919050565b6000611858602083611bbd565b91506118638261201c565b602082019050919050565b600061187b601f83611bbd565b915061188682612045565b602082019050919050565b600061189e602583611bbd565b91506118a98261206e565b604082019050919050565b60006118c1602483611bbd565b91506118cc826120bd565b604082019050919050565b60006118e4602583611bbd565b91506118ef8261210c565b604082019050919050565b6000611907601f83611bbd565b91506119128261215b565b602082019050919050565b61192681611cbc565b82525050565b61193581611cc6565b82525050565b600060208201905061195060008301846116dc565b92915050565b600060408201905061196b60008301856116dc565b611978602083018461191d565b9392505050565b600060208201905061199460008301846116eb565b92915050565b600060208201905081810360008301526119b481846116fa565b905092915050565b600060208201905081810360008301526119d581611733565b9050919050565b600060208201905081810360008301526119f581611756565b9050919050565b60006020820190508181036000830152611a1581611779565b9050919050565b60006020820190508181036000830152611a358161179c565b9050919050565b60006020820190508181036000830152611a55816117bf565b9050919050565b60006020820190508181036000830152611a75816117e2565b9050919050565b60006020820190508181036000830152611a9581611805565b9050919050565b60006020820190508181036000830152611ab581611828565b9050919050565b60006020820190508181036000830152611ad58161184b565b9050919050565b60006020820190508181036000830152611af58161186e565b9050919050565b60006020820190508181036000830152611b1581611891565b9050919050565b60006020820190508181036000830152611b35816118b4565b9050919050565b60006020820190508181036000830152611b55816118d7565b9050919050565b60006020820190508181036000830152611b75816118fa565b9050919050565b6000602082019050611b91600083018461191d565b92915050565b6000602082019050611bac600083018461192c565b92915050565b600081519050919050565b600082825260208201905092915050565b6000611bd982611cbc565b9150611be483611cbc565b9250827fffffffffffffffffffffffffffffffffffffffffffffffffffffffffffffffff03821115611c1957611c18611d81565b5b828201905092915050565b6000611c2f82611cbc565b9150611c3a83611cbc565b9250817fffffffffffffffffffffffffffffffffffffffffffffffffffffffffffffffff0483118215151615611c7357611c72611d81565b5b828202905092915050565b6000611c8982611c9c565b9050919050565b60008115159050919050565b600073ffffffffffffffffffffffffffffffffffffffff82169050919050565b6000819050919050565b600060ff82169050919050565b60005b83811015611cf1578082015181840152602081019050611cd6565b83811115611d00576000848401525b50505050565b60006002820490506001821680611d1e57607f821691505b60208210811415611d3257611d31611db0565b5b50919050565b6000611d4382611cbc565b91507fffffffffffffffffffffffffffffffffffffffffffffffffffffffffffffffff821415611d7657611d75611d81565b5b600182019050919050565b7f4e487b7100000000000000000000000000000000000000000000000000000000600052601160045260246000fd5b7f4e487b7100000000000000000000000000000000000000000000000000000000600052602260045260246000fd5b6000601f19601f8301169050919050565b7f45524332303a207472616e7366657220746f20746865207a65726f206164647260008201527f6573730000000000000000000000000000000000000000000000000000000000602082015250565b7f4f776e61626c653a206e6577206f776e657220697320746865207a65726f206160008201527f6464726573730000000000000000000000000000000000000000000000000000602082015250565b7f45524332303a20617070726f766520746f20746865207a65726f20616464726560008201527f7373000000000000000000000000000000000000000000000000000000000000602082015250565b7f596f7520646f6e2774206f776e20616e792043727970746f20446576204e465460008201527f7300000000000000000000000000000000000000000000000000000000000000602082015250565b7f45524332303a20696e73756666696369656e7420616c6c6f77616e6365000000600082015250565b7f596f75206861766520616c726561647920636c61696d656420616c6c2074686560008201527f20746f6b656e7300000000000000000000000000000000000000000000000000602082015250565b7f45524332303a207472616e7366657220616d6f756e742065786365656473206260008201527f616c616e63650000000000000000000000000000000000000000000000000000602082015250565b7f4578636565647320746865206d617820746f74616c20737570706c7900000000600082015250565b7f4f776e61626c653a2063616c6c6572206973206e6f7420746865206f776e6572600082015250565b7f4e6f7420656e6f75676820657468657220746f206d696e7420746f6b656e7300600082015250565b7f45524332303a207472616e736665722066726f6d20746865207a65726f20616460008201527f6472657373000000000000000000000000000000000000000000000000000000602082015250565b7f45524332303a20617070726f76652066726f6d20746865207a65726f2061646460008201527f7265737300000000000000000000000000000000000000000000000000000000602082015250565b7f45524332303a2064656372656173656420616c6c6f77616e63652062656c6f7760008201527f207a65726f000000000000000000000000000000000000000000000000000000602082015250565b7f45524332303a206d696e7420746f20746865207a65726f206164647265737300600082015250565b61218d81611c7e565b811461219857600080fd5b50565b6121a481611cbc565b81146121af57600080fd5b5056fea26469706673582212206a2710458eab7ff5d6759c666dba16802302bf9a05944b34532507349a70c48964736f6c63430008040033",
  "linkReferences": {},
  "deployedLinkReferences": {}
}